{
  "contractName": "DiscountingContract",
  "abi": [
    {
      "inputs": [
        {
          "internalType": "uint256",
          "name": "",
          "type": "uint256"
        }
      ],
      "name": "Suppliers",
      "outputs": [
        {
          "internalType": "address",
          "name": "supplierAddress",
          "type": "address"
        },
        {
          "internalType": "uint256",
          "name": "needAmount",
          "type": "uint256"
        },
        {
          "internalType": "uint256",
          "name": "discountPercent",
          "type": "uint256"
        }
      ],
      "stateMutability": "view",
      "type": "function"
    },
    {
      "inputs": [],
      "name": "SuppliersLength",
      "outputs": [
        {
          "internalType": "uint256",
          "name": "",
          "type": "uint256"
        }
      ],
      "stateMutability": "view",
      "type": "function"
    },
    {
      "inputs": [],
      "name": "inited",
      "outputs": [
        {
          "internalType": "bool",
          "name": "",
          "type": "bool"
        }
      ],
      "stateMutability": "view",
      "type": "function"
    },
    {
      "inputs": [
        {
          "components": [
            {
              "internalType": "address",
              "name": "supplierAddress",
              "type": "address"
            },
            {
              "internalType": "uint256",
              "name": "needAmount",
              "type": "uint256"
            },
            {
              "internalType": "uint256",
              "name": "discountPercent",
              "type": "uint256"
            }
          ],
          "internalType": "struct DiscountingTypes.Supplier[]",
          "name": "_rule",
          "type": "tuple[]"
        }
      ],
      "name": "initContract",
      "outputs": [],
      "stateMutability": "nonpayable",
      "type": "function"
    },
    {
      "inputs": [],
      "name": "getSuppliers",
      "outputs": [
        {
          "components": [
            {
              "internalType": "address",
              "name": "supplierAddress",
              "type": "address"
            },
            {
              "internalType": "uint256",
              "name": "needAmount",
              "type": "uint256"
            },
            {
              "internalType": "uint256",
              "name": "discountPercent",
              "type": "uint256"
            }
          ],
          "internalType": "struct DiscountingTypes.Supplier[]",
          "name": "",
          "type": "tuple[]"
        }
      ],
      "stateMutability": "view",
      "type": "function"
    }
  ],
  "bytecode": "0x608060405260006001556002805460ff1916905534801561001f57600080fd5b506104bc8061002f6000396000f3fe608060405234801561001057600080fd5b50600436106100575760003560e01c80631e4a2a031461005c57806324b2dff1146100715780632b3eb1371461009c57806343516832146100b157806343c885ba146100c6575b600080fd5b61006f61006a3660046102ed565b6100db565b005b61008461007f366004610390565b61016f565b604051610093939291906103a8565b60405180910390f35b6100a461019a565b6040516100939190610436565b6100b96101a0565b60405161009391906103c9565b6100ce610268565b604051610093919061042b565b60025460ff16156100eb57600080fd5b60005b815181101561015e5781818151811061010357fe5b602090810291909101810151600180546000908152808452604090819020835181546001600160a01b0319166001600160a01b03909116178155938301518483015590910151600290920191909155805481018155016100ee565b50506002805460ff19166001179055565b6000602081905290815260409020805460018201546002909201546001600160a01b03909116919083565b60015481565b60608060015467ffffffffffffffff811180156101bc57600080fd5b506040519080825280602002602001820160405280156101f657816020015b6101e3610271565b8152602001906001900390816101db5790505b50905060005b81518110156102625760008181526020818152604091829020825160608101845281546001600160a01b031681526001820154928101929092526002015491810191909152825183908390811061024f57fe5b60209081029190910101526001016101fc565b50905090565b60025460ff1681565b604051806060016040528060006001600160a01b0316815260200160008152602001600081525090565b6000606082840312156102ac578081fd5b6102b6606061043f565b905081356001600160a01b03811681146102cf57600080fd5b80825250602082013560208201526040820135604082015292915050565b600060208083850312156102ff578182fd5b823567ffffffffffffffff811115610315578283fd5b8301601f81018513610325578283fd5b803561033861033382610466565b61043f565b818152838101908385016060808502860187018a1015610356578788fd5b8795505b848610156103825761036c8a8361029b565b845260019590950194928601929081019061035a565b509098975050505050505050565b6000602082840312156103a1578081fd5b5035919050565b6001600160a01b039390931683526020830191909152604082015260600190565b602080825282518282018190526000919060409081850190868401855b8281101561041e57815180516001600160a01b03168552868101518786015285015185850152606090930192908501906001016103e6565b5091979650505050505050565b901515815260200190565b90815260200190565b60405181810167ffffffffffffffff8111828210171561045e57600080fd5b604052919050565b600067ffffffffffffffff82111561047c578081fd5b506020908102019056fea264697066735822122024a7ce96753eab03ca2510edc1c6a840f28f078a34b8097e37d572f4065cf40b64736f6c634300060c0033",
  "immutableReferences": {},
  "source": "pragma solidity ^0.6.12;\npragma experimental ABIEncoderV2;\n\nimport \"./IDiscountingContract.sol\";\n\ncontract DiscountingContract is IDiscountingContract {\n\n    mapping(uint256 => Supplier) public Suppliers;\n    uint256 public SuppliersLength = 0;\n    bool public inited = false;\n\n    function initContract(Supplier[] memory _rule) public {\n        require(inited == false);\n        for (uint256 i = 0; i < _rule.length; i++) {\n            Suppliers[SuppliersLength] = _rule[i];\n            SuppliersLength++;\n        }\n        inited = true;\n    }\n\n    function getSuppliers() external view override returns(Supplier[] memory) {\n        Supplier[] memory result = new Supplier[](SuppliersLength);\n        for (uint256 i = 0; i < result.length; i++) {\n            result[i] = Suppliers[i];\n        }\n        return result;\n    }\n\n}\n\n",
  "sourcePath": "/home/oem/work/joys/staking-contract/contracts/discounting/DiscountingContract.sol",
  "compiler": {
    "name": "solc",
    "version": "0.6.12+commit.27d51765.Emscripten.clang"
  },
  "schemaVersion": "3.3.3",
  "updatedAt": "2021-03-26T08:17:20.961Z",
  "devdoc": {
    "kind": "dev",
    "methods": {},
    "version": 1
  },
  "userdoc": {
    "kind": "user",
    "methods": {},
    "version": 1
  }
}