{
  "contractName": "Staking",
  "abi": [
    {
      "inputs": [
        {
          "internalType": "uint256",
          "name": "emissionSpeed",
          "type": "uint256"
        }
      ],
      "stateMutability": "payable",
      "type": "constructor",
      "payable": true
    },
    {
      "inputs": [],
      "name": "deposit",
      "outputs": [],
      "stateMutability": "payable",
      "type": "function",
      "payable": true
    },
    {
      "inputs": [
        {
          "internalType": "uint256",
          "name": "amount",
          "type": "uint256"
        }
      ],
      "name": "withdraw",
      "outputs": [],
      "stateMutability": "nonpayable",
      "type": "function"
    },
    {
      "inputs": [],
      "name": "totalStake",
      "outputs": [
        {
          "internalType": "uint256",
          "name": "",
          "type": "uint256"
        }
      ],
      "stateMutability": "view",
      "type": "function",
      "constant": true
    },
    {
      "inputs": [
        {
          "internalType": "address",
          "name": "target",
          "type": "address"
        }
      ],
      "name": "stakeOf",
      "outputs": [
        {
          "internalType": "uint256",
          "name": "",
          "type": "uint256"
        }
      ],
      "stateMutability": "view",
      "type": "function",
      "constant": true
    },
    {
      "inputs": [
        {
          "internalType": "address",
          "name": "target",
          "type": "address"
        }
      ],
      "name": "withdrawalAmountOf",
      "outputs": [
        {
          "internalType": "uint256",
          "name": "",
          "type": "uint256"
        }
      ],
      "stateMutability": "view",
      "type": "function",
      "constant": true
    }
  ],
  "bytecode": "0x608060405260405161063b38038061063b8339818101604052602081101561002657600080fd5b5051600055426002556105fd8061003e6000396000f3fe60806040526004361061004a5760003560e01c80632e1a7d4d1461004f578063426233601461007b578063733f901d146100c05780638b0e9f3f146100f3578063d0e30db014610108575b600080fd5b34801561005b57600080fd5b506100796004803603602081101561007257600080fd5b5035610110565b005b34801561008757600080fd5b506100ae6004803603602081101561009e57600080fd5b50356001600160a01b03166101f5565b60408051918252519081900360200190f35b3480156100cc57600080fd5b506100ae600480360360208110156100e357600080fd5b50356001600160a01b0316610210565b3480156100ff57600080fd5b506100ae610221565b610079610227565b600061011b33610267565b90508082111561015f576040805162461bcd60e51b815260206004820152600a602482015269109a59c8185b5bdd5b9d60b21b604482015290519081900360640190fd5b336000908152600360205260409020546101799083610290565b336000908152600360209081526040808320939093556004905220546101a390600f84900b6102d9565b336000908152600460205260409020556001546101c09083610290565b600155604051339083156108fc029084906000818181858888f193505050501580156101f0573d6000803e3d6000fd5b505050565b6001600160a01b031660009081526003602052604090205490565b600061021b82610267565b92915050565b60015490565b33600090815260036020526040902054610241903461033e565b3360009081526003602052604090205560015461025e903461033e565b60015542600255565b6001600160a01b03811660009081526004602052604081205461028983610398565b0192915050565b60006102d283836040518060400160405280601e81526020017f536166654d6174683a207375627472616374696f6e206f766572666c6f7700008152506103f0565b9392505050565b60008183038183128015906102ee5750838113155b80610303575060008312801561030357508381135b6102d25760405162461bcd60e51b81526004018080602001828103825260248152602001806105a46024913960400191505060405180910390fd5b6000828201838110156102d2576040805162461bcd60e51b815260206004820152601b60248201527f536166654d6174683a206164646974696f6e206f766572666c6f770000000000604482015290519081900360640190fd5b600061021b6001546103ea60036000866001600160a01b03166001600160a01b03168152602001908152602001600020546103e46000546103e46002544261029090919063ffffffff16565b90610487565b906104e0565b6000818484111561047f5760405162461bcd60e51b81526004018080602001828103825283818151815260200191508051906020019080838360005b8381101561044457818101518382015260200161042c565b50505050905090810190601f1680156104715780820380516001836020036101000a031916815260200191505b509250505060405180910390fd5b505050900390565b6000826104965750600061021b565b828202828482816104a357fe5b04146102d25760405162461bcd60e51b81526004018080602001828103825260218152602001806105836021913960400191505060405180910390fd5b60006102d283836040518060400160405280601a81526020017f536166654d6174683a206469766973696f6e206279207a65726f0000000000008152506000818361056c5760405162461bcd60e51b815260206004820181815283516024840152835190928392604490910191908501908083836000831561044457818101518382015260200161042c565b50600083858161057857fe5b049594505050505056fe536166654d6174683a206d756c7469706c69636174696f6e206f766572666c6f775369676e6564536166654d6174683a207375627472616374696f6e206f766572666c6f77a2646970667358221220336add078f548a8c449801ce2889bd18c1b8cc3b4075073b8b410607f4db96e264736f6c634300060c0033",
  "immutableReferences": {},
  "source": "pragma solidity ^0.6.12;\n\nimport \"@openzeppelin/contracts/math/SafeMath.sol\";\nimport \"@openzeppelin/contracts/math/SignedSafeMath.sol\";\n\ncontract Staking {\n    using SafeMath for uint256;\n    using SignedSafeMath for int256;\n\n    uint256 internal _emissionSpeed; // how many mint eth every second\n\n    uint256 internal _totalStake;\n\n    uint256 internal _lastDistributionTime; // unix timestamp\n\n    mapping(address => uint256) internal _stake;\n    mapping(address => int256) internal _moneybox;\n\n    constructor(uint256 emissionSpeed) public payable {\n        _emissionSpeed = emissionSpeed;\n        _lastDistributionTime = block.timestamp;\n    }\n\n    function deposit() external payable {\n        _stake[msg.sender] = _stake[msg.sender].add(msg.value);\n        _totalStake = _totalStake.add(msg.value);\n\n        _lastDistributionTime = block.timestamp;\n    }\n\n    function withdraw(uint256 amount) external {\n        uint256 maxWithdrawalAmount = _withdrawalAmountOf(msg.sender);\n\n        require(amount <= maxWithdrawalAmount, \"Big amount\");\n\n        // TODO check reentrancy attack\n        _stake[msg.sender] = _stake[msg.sender].sub(amount);\n        _moneybox[msg.sender] = _moneybox[msg.sender].sub(int128(amount));\n        _totalStake = _totalStake.sub(amount);\n        msg.sender.transfer(amount);\n    }\n\n    function totalStake() external view returns (uint256) {\n        return _totalStake;\n    }\n\n    function stakeOf(address target) external view returns (uint256) {\n        return _stake[target];\n    }\n\n    function withdrawalAmountOf(address target)\n        external\n        view\n        returns (uint256)\n    {\n        return _withdrawalAmountOf(target);\n    }\n\n    function _calculateRewardFor(address target)\n        internal\n        view\n        returns (uint256)\n    {\n        // (current time - last distribution time) * emission speed * user stake / total stake\n        return (\n            (block.timestamp.sub(_lastDistributionTime))\n                .mul(_emissionSpeed)\n                .mul(_stake[target])\n                .div(_totalStake)\n        );\n    }\n\n    function _withdrawalAmountOf(address target)\n        internal\n        view\n        returns (uint256)\n    {\n        // TODO make safemath\n        return uint256(int256(_calculateRewardFor(target)) + _moneybox[target]);\n    }\n}\n",
  "sourcePath": "/home/oem/work/joys/staking-contract/contracts/Staking.sol",
  "compiler": {
    "name": "solc",
    "version": "0.6.12+commit.27d51765.Emscripten.clang"
  },
  "schemaVersion": "3.3.3",
  "updatedAt": "2021-03-26T09:07:43.268Z",
  "networkType": "ethereum",
  "devdoc": {
    "kind": "dev",
    "methods": {},
    "version": 1
  },
  "userdoc": {
    "kind": "user",
    "methods": {},
    "version": 1
  }
}