{
  "contractName": "SupplyOrderFactory",
  "abi": [
    {
      "anonymous": false,
      "inputs": [
        {
          "indexed": false,
          "internalType": "uint256",
          "name": "_id",
          "type": "uint256"
        },
        {
          "indexed": true,
          "internalType": "address",
          "name": "_from",
          "type": "address"
        },
        {
          "indexed": true,
          "internalType": "enum SupplyOrderFactory.Side",
          "name": "_side",
          "type": "uint8"
        },
        {
          "indexed": true,
          "internalType": "address",
          "name": "_to",
          "type": "address"
        },
        {
          "indexed": false,
          "internalType": "uint256",
          "name": "_timestamp",
          "type": "uint256"
        }
      ],
      "name": "AcceptedP2POrder",
      "type": "event"
    },
    {
      "anonymous": false,
      "inputs": [
        {
          "indexed": false,
          "internalType": "uint256",
          "name": "_id",
          "type": "uint256"
        },
        {
          "indexed": true,
          "internalType": "address",
          "name": "_from",
          "type": "address"
        },
        {
          "indexed": true,
          "internalType": "enum SupplyOrderFactory.Side",
          "name": "_side",
          "type": "uint8"
        },
        {
          "indexed": true,
          "internalType": "address",
          "name": "_to",
          "type": "address"
        },
        {
          "indexed": false,
          "internalType": "uint256",
          "name": "_timestamp",
          "type": "uint256"
        }
      ],
      "name": "CreatedP2POrder",
      "type": "event"
    },
    {
      "anonymous": false,
      "inputs": [
        {
          "indexed": true,
          "internalType": "address",
          "name": "previousOwner",
          "type": "address"
        },
        {
          "indexed": true,
          "internalType": "address",
          "name": "newOwner",
          "type": "address"
        }
      ],
      "name": "OwnershipTransferred",
      "type": "event"
    },
    {
      "inputs": [
        {
          "internalType": "uint256",
          "name": "",
          "type": "uint256"
        }
      ],
      "name": "contracts",
      "outputs": [
        {
          "internalType": "contract SupplyOrderContract",
          "name": "",
          "type": "address"
        }
      ],
      "stateMutability": "view",
      "type": "function"
    },
    {
      "inputs": [],
      "name": "owner",
      "outputs": [
        {
          "internalType": "address",
          "name": "",
          "type": "address"
        }
      ],
      "stateMutability": "view",
      "type": "function"
    },
    {
      "inputs": [
        {
          "internalType": "uint256",
          "name": "",
          "type": "uint256"
        }
      ],
      "name": "p2pOrders",
      "outputs": [
        {
          "internalType": "uint256",
          "name": "id",
          "type": "uint256"
        },
        {
          "internalType": "address",
          "name": "initiator",
          "type": "address"
        },
        {
          "internalType": "enum SupplyOrderFactory.Side",
          "name": "ordeSide",
          "type": "uint8"
        },
        {
          "internalType": "address",
          "name": "target",
          "type": "address"
        },
        {
          "internalType": "string",
          "name": "description",
          "type": "string"
        },
        {
          "components": [
            {
              "internalType": "uint256",
              "name": "amount",
              "type": "uint256"
            },
            {
              "internalType": "uint256",
              "name": "discount",
              "type": "uint256"
            }
          ],
          "internalType": "struct SupplyOrderTypes.ContractRule",
          "name": "rule",
          "type": "tuple"
        },
        {
          "internalType": "contract SupplyOrderContract",
          "name": "signedContract",
          "type": "address"
        }
      ],
      "stateMutability": "view",
      "type": "function"
    },
    {
      "inputs": [],
      "name": "renounceOwnership",
      "outputs": [],
      "stateMutability": "nonpayable",
      "type": "function"
    },
    {
      "inputs": [
        {
          "internalType": "address",
          "name": "newOwner",
          "type": "address"
        }
      ],
      "name": "transferOwnership",
      "outputs": [],
      "stateMutability": "nonpayable",
      "type": "function"
    },
    {
      "inputs": [
        {
          "internalType": "enum SupplyOrderFactory.Side",
          "name": "_side",
          "type": "uint8"
        },
        {
          "internalType": "address",
          "name": "_to",
          "type": "address"
        },
        {
          "internalType": "string",
          "name": "_description",
          "type": "string"
        },
        {
          "components": [
            {
              "internalType": "uint256",
              "name": "amount",
              "type": "uint256"
            },
            {
              "internalType": "uint256",
              "name": "discount",
              "type": "uint256"
            }
          ],
          "internalType": "struct SupplyOrderTypes.ContractRule",
          "name": "_rule",
          "type": "tuple"
        }
      ],
      "name": "createP2POrder",
      "outputs": [
        {
          "internalType": "uint256",
          "name": "",
          "type": "uint256"
        }
      ],
      "stateMutability": "nonpayable",
      "type": "function"
    },
    {
      "inputs": [
        {
          "internalType": "uint256",
          "name": "_orderId",
          "type": "uint256"
        }
      ],
      "name": "acceptP2POrder",
      "outputs": [
        {
          "internalType": "address",
          "name": "",
          "type": "address"
        }
      ],
      "stateMutability": "nonpayable",
      "type": "function"
    },
    {
      "inputs": [
        {
          "internalType": "uint256",
          "name": "_orderId",
          "type": "uint256"
        }
      ],
      "name": "getOrderDetails",
      "outputs": [
        {
          "components": [
            {
              "internalType": "uint256",
              "name": "id",
              "type": "uint256"
            },
            {
              "internalType": "address",
              "name": "initiator",
              "type": "address"
            },
            {
              "internalType": "enum SupplyOrderFactory.Side",
              "name": "ordeSide",
              "type": "uint8"
            },
            {
              "internalType": "address",
              "name": "target",
              "type": "address"
            },
            {
              "internalType": "string",
              "name": "description",
              "type": "string"
            },
            {
              "components": [
                {
                  "internalType": "uint256",
                  "name": "amount",
                  "type": "uint256"
                },
                {
                  "internalType": "uint256",
                  "name": "discount",
                  "type": "uint256"
                }
              ],
              "internalType": "struct SupplyOrderTypes.ContractRule",
              "name": "rule",
              "type": "tuple"
            },
            {
              "internalType": "contract SupplyOrderContract",
              "name": "signedContract",
              "type": "address"
            }
          ],
          "internalType": "struct SupplyOrderFactory.P2POrder",
          "name": "",
          "type": "tuple"
        }
      ],
      "stateMutability": "view",
      "type": "function"
    },
    {
      "inputs": [
        {
          "internalType": "uint256[]",
          "name": "_orderIds",
          "type": "uint256[]"
        }
      ],
      "name": "getOrderDetailsList",
      "outputs": [
        {
          "components": [
            {
              "internalType": "uint256",
              "name": "id",
              "type": "uint256"
            },
            {
              "internalType": "address",
              "name": "initiator",
              "type": "address"
            },
            {
              "internalType": "enum SupplyOrderFactory.Side",
              "name": "ordeSide",
              "type": "uint8"
            },
            {
              "internalType": "address",
              "name": "target",
              "type": "address"
            },
            {
              "internalType": "string",
              "name": "description",
              "type": "string"
            },
            {
              "components": [
                {
                  "internalType": "uint256",
                  "name": "amount",
                  "type": "uint256"
                },
                {
                  "internalType": "uint256",
                  "name": "discount",
                  "type": "uint256"
                }
              ],
              "internalType": "struct SupplyOrderTypes.ContractRule",
              "name": "rule",
              "type": "tuple"
            },
            {
              "internalType": "contract SupplyOrderContract",
              "name": "signedContract",
              "type": "address"
            }
          ],
          "internalType": "struct SupplyOrderFactory.P2POrder[]",
          "name": "",
          "type": "tuple[]"
        }
      ],
      "stateMutability": "view",
      "type": "function"
    }
  ],
  "bytecode": "0x608060405234801561001057600080fd5b50600061001b61006a565b600080546001600160a01b0319166001600160a01b0383169081178255604051929350917f8be0079c531659141344cd1fd0a4f28419497f9722a3daafe3b4186f6b6457e0908290a35061006e565b3390565b611eb38061007d6000396000f3fe60806040523480156200001157600080fd5b5060043610620000a05760003560e01c80638da5cb5b116200006f5780638da5cb5b1462000123578063d846471a146200012d578063e7e2b7d31462000153578063ec7dd7bb1462000179578063f2fde38b146200019f57620000a0565b806318a3fb8814620000a5578063474da79a14620000da578063715018a614620001005780637a39c4b8146200010c575b600080fd5b620000bc620000b6366004620010b1565b620001b6565b604051620000d1979695949392919062001473565b60405180910390f35b620000f1620000eb366004620010b1565b620002c7565b604051620000d19190620011c3565b6200010a620002ef565b005b620000f16200011d366004620010b1565b6200037c565b620000f1620006f7565b620001446200013e36600462000f44565b62000706565b604051620000d1919062001297565b6200016a6200016436600462000fe3565b62000900565b604051620000d191906200146a565b620001906200018a366004620010b1565b62000b31565b604051620000d1919062001455565b6200010a620001b036600462000f26565b62000c93565b60028181548110620001c457fe5b60009182526020918290206007919091020180546001808301546002808501546003860180546040805161010097831615979097026000190190911693909304601f81018990048902860189019093528285529497506001600160a01b0380841697600160a01b90940460ff1696911694909392909190830182828015620002905780601f10620002645761010080835404028352916020019162000290565b820191906000526020600020905b8154815290600101906020018083116200027257829003601f168201915b50506040805180820190915260048601548152600586015460208201526006909501549394936001600160a01b0316925089915050565b60018181548110620002d557fe5b6000918252602090912001546001600160a01b0316905081565b620002f962000d51565b6000546001600160a01b03908116911614620003325760405162461bcd60e51b81526004016200032990620013d9565b60405180910390fd5b600080546040516001600160a01b03909116907f8be0079c531659141344cd1fd0a4f28419497f9722a3daafe3b4186f6b6457e0908390a3600080546001600160a01b0319169055565b6000336001600160a01b0316600283815481106200039657fe5b60009182526020909120600260079092020101546001600160a01b031614620003d35760405162461bcd60e51b8152600401620003299062001356565b60006001600160a01b031660028381548110620003ec57fe5b60009182526020909120600660079092020101546001600160a01b031614620004295760405162461bcd60e51b815260040162000329906200138b565b60008080600285815481106200043b57fe5b906000526020600020906007020160010160149054906101000a900460ff1660018111156200046657fe5b1415620004d557600284815481106200047b57fe5b906000526020600020906007020160010160009054906101000a90046001600160a01b0316915060028481548110620004b057fe5b60009182526020909120600260079092020101546001600160a01b0316905062000532565b60028481548110620004e357fe5b60009182526020909120600260079092020181015481546001600160a01b039091169350859081106200051257fe5b60009182526020909120600160079092020101546001600160a01b031690505b60008282600287815481106200054457fe5b9060005260206000209060070201600301600288815481106200056357fe5b9060005260206000209060070201600401604051620005829062000dd1565b620005919493929190620011d7565b604051809103906000f080158015620005ae573d6000803e3d6000fd5b506001805480820182556000919091527fb10e2d527612073b26eecdfd717e6a320cf44b4afac2b0732d9fcbe2b7fa0cf60180546001600160a01b0319166001600160a01b038316179055600280549192508291879081106200060d57fe5b906000526020600020906007020160060160006101000a8154816001600160a01b0302191690836001600160a01b03160217905550600285815481106200065057fe5b60009182526020909120600260079092020181015481546001600160a01b039091169190879081106200067f57fe5b906000526020600020906007020160010160149054906101000a900460ff166001811115620006aa57fe5b336001600160a01b03167fd66c81ae06f957c7632d8a0a5655e4e5867f482812fcb95366e3ce18401314a98842604051620006e7929190620014e1565b60405180910390a4949350505050565b6000546001600160a01b031690565b606080825167ffffffffffffffff811180156200072257600080fd5b506040519080825280602002602001820160405280156200076057816020015b6200074c62000ddf565b815260200190600190039081620007425790505b50905060005b8351811015620008f95760028482815181106200077f57fe5b6020026020010151815481106200079257fe5b60009182526020918290206040805160e081018252600793909302909101805483526001808201546001600160a01b038116958501959095529293909291840191600160a01b90910460ff1690811115620007e957fe5b6001811115620007f557fe5b81526002828101546001600160a01b031660208084019190915260038401805460408051601f600019600185161561010002019093169590950491820184900484028501840181528185529094019390918301828280156200089b5780601f106200086f576101008083540402835291602001916200089b565b820191906000526020600020905b8154815290600101906020018083116200087d57829003601f168201915b50505091835250506040805180820182526004840154815260058401546020828101919091528301526006909201546001600160a01b03169101528251839083908110620008e557fe5b602090810291909101015260010162000766565b5092915050565b60006001600160a01b0384163314156200092e5760405162461bcd60e51b815260040162000329906200140e565b6200093862000ddf565b6040805160e08101825260025481523360208201529081018760018111156200095d57fe5b81526001600160a01b0380881660208084019190915260408084018990526060840188905260006080909401849052600280546001818101835591909552855160079095027f405787fa12a823e0f2b7631cc41b3ba8828b3321ca811111fa75cd3aa3bb5ace8101958655928601517f405787fa12a823e0f2b7631cc41b3ba8828b3321ca811111fa75cd3aa3bb5acf9093018054939094166001600160a01b031990931692909217808455908501519495508594929160ff60a01b1990911690600160a01b90849081111562000a3057fe5b021790555060608201516002820180546001600160a01b0319166001600160a01b039092169190911790556080820151805162000a7891600384019160209091019062000e24565b5060a08201518051600483015560200151600582015560c090910151600690910180546001600160a01b0319166001600160a01b0390921691909117905560025460009062000ac990600162000d55565b9050856001600160a01b031687600181111562000ae257fe5b336001600160a01b03167fef498984e025b554b1e37aec5ef696e0da1f442ecb6dd1d9ebf27870da7674fe844260405162000b1f929190620014e1565b60405180910390a49695505050505050565b62000b3b62000ddf565b6002828154811062000b4957fe5b60009182526020918290206040805160e081018252600793909302909101805483526001808201546001600160a01b038116958501959095529293909291840191600160a01b90910460ff169081111562000ba057fe5b600181111562000bac57fe5b81526002828101546001600160a01b031660208084019190915260038401805460408051601f6000196001851615610100020190931695909504918201849004840285018401815281855290940193909183018282801562000c525780601f1062000c265761010080835404028352916020019162000c52565b820191906000526020600020905b81548152906001019060200180831162000c3457829003601f168201915b50505091835250506040805180820182526004840154815260058401546020808301919091528301526006909201546001600160a01b031691015292915050565b62000c9d62000d51565b6000546001600160a01b0390811691161462000ccd5760405162461bcd60e51b81526004016200032990620013d9565b6001600160a01b03811662000cf65760405162461bcd60e51b8152600401620003299062001310565b600080546040516001600160a01b03808516939216917f8be0079c531659141344cd1fd0a4f28419497f9722a3daafe3b4186f6b6457e091a3600080546001600160a01b0319166001600160a01b0392909216919091179055565b3390565b600062000d9983836040518060400160405280601e81526020017f536166654d6174683a207375627472616374696f6e206f766572666c6f77000081525062000da2565b90505b92915050565b6000818484111562000dc95760405162461bcd60e51b8152600401620003299190620012fb565b505050900390565b610939806200154583390190565b6040805160e08101825260008082526020820181905290918201908152600060208201526060604082018190520162000e1762000ea9565b8152600060209091015290565b828054600181600116156101000203166002900490600052602060002090601f016020900481019282601f1062000e6757805160ff191683800117855562000e97565b8280016001018555821562000e97579182015b8281111562000e9757825182559160200191906001019062000e7a565b5062000ea592915062000ec3565b5090565b604051806040016040528060008152602001600081525090565b5b8082111562000ea5576000815560010162000ec4565b80356001600160a01b038116811462000d9c57600080fd5b60006040828403121562000f04578081fd5b62000f106040620014ef565b9050813581526020820135602082015292915050565b60006020828403121562000f38578081fd5b62000d99838362000eda565b6000602080838503121562000f57578182fd5b823567ffffffffffffffff81111562000f6e578283fd5b8301601f8101851362000f7f578283fd5b803562000f9662000f908262001517565b620014ef565b818152838101908385018584028501860189101562000fb3578687fd5b8694505b8385101562000fd757803583526001949094019391850191850162000fb7565b50979650505050505050565b60008060008060a0858703121562000ff9578283fd5b84356002811062001008578384fd5b935060206200101a8787830162000eda565b9350604086013567ffffffffffffffff8082111562001037578485fd5b818801915088601f8301126200104b578485fd5b8135818111156200105a578586fd5b6200106e601f8201601f19168501620014ef565b9150808252898482850101111562001084578586fd5b80848401858401378101909201939093529150620010a6866060870162000ef2565b905092959194509250565b600060208284031215620010c3578081fd5b5035919050565b60008151808452815b81811015620010f157602081850181015186830182015201620010d3565b81811115620011035782602083870101525b50601f01601f19169290920160200192915050565b80518252602090810151910152565b8054825260010154602090910152565b600061010082518452602083015160018060a01b03808216602087015260408501519150600282106200116657fe5b816040870152806060860151166060870152608085015191508260808701526200119383870183620010ca565b925060a08501519150620011ab60a087018362001118565b8060c08601511660e087015250508091505092915050565b6001600160a01b0391909116815260200190565b600060a0820160018060a01b03808816845260208188168186015260a0604086015283915086546001808216600081146200121b57600181146200123a5762001276565b60028304607f16865260ff19831660c089015260e08801945062001276565b600283048087526200124c8b62001538565b885b828110156200126c5781548b820160c001529084019086016200124e565b8a0160c001965050505b5050505080925050506200128e606083018462001127565b95945050505050565b6000602080830181845280855180835260408601915060408482028701019250838701855b82811015620012ee57603f19888603018452620012db85835162001137565b94509285019290850190600101620012bc565b5092979650505050505050565b60006020825262000d996020830184620010ca565b60208082526026908201527f4f776e61626c653a206e6577206f776e657220697320746865207a65726f206160408201526564647265737360d01b606082015260800190565b6020808252818101527f446973636f756e74696e67466163746f72793a2077726f6e6720746172676574604082015260600190565b6020808252602e908201527f446973636f756e74696e67466163746f72793a207032702d6f7264657220616c60408201526d1c9958591e481858d8d95c1d195960921b606082015260800190565b6020808252818101527f4f776e61626c653a2063616c6c6572206973206e6f7420746865206f776e6572604082015260600190565b60208082526027908201527f446973636f756e74696e67466163746f72793a2077726f6e67205f746f2070616040820152663930b6b2ba32b960c91b606082015260800190565b60006020825262000d99602083018462001137565b90815260200190565b8781526001600160a01b03878116602083015260009061010090600289106200149857fe5b8860408501528088166060850152816080850152620014ba82850188620010ca565b9250620014cb60a085018762001118565b80851660e0850152505098975050505050505050565b918252602082015260400190565b60405181810167ffffffffffffffff811182821017156200150f57600080fd5b604052919050565b600067ffffffffffffffff8211156200152e578081fd5b5060209081020190565b6000908152602090209056fe60e060405234801561001057600080fd5b5060405161093938038061093983398101604081905261002f9161014f565b33606090811b6080526001600160601b031985821b811660a0529084901b1660c052815161006490600090602085019061008b565b50805160019081556020909101516002556003805460ff1916909117905550610282915050565b828054600181600116156101000203166002900490600052602060002090601f016020900481019282601f106100cc57805160ff19168380011785556100f9565b828001600101855582156100f9579182015b828111156100f95782518255916020019190600101906100de565b50610105929150610109565b5090565b5b80821115610105576000815560010161010a565b60006040828403121561012f578081fd5b6101396040610214565b9050815181526020820151602082015292915050565b60008060008060a08587031215610164578384fd5b845161016f8161026a565b60208601519094506101808161026a565b60408601519093506001600160401b038082111561019c578384fd5b818701915087601f8301126101af578384fd5b8151818111156101bd578485fd5b6101d0601f8201601f1916602001610214565b91508082528860208285010111156101e6578485fd5b6101f781602084016020860161023a565b5092506102099050866060870161011e565b905092959194509250565b6040518181016001600160401b038111828210171561023257600080fd5b604052919050565b60005b8381101561025557818101518382015260200161023d565b83811115610264576000848401525b50505050565b6001600160a01b038116811461027f57600080fd5b50565b60805160601c60a05160601c60c05160601c6106736102c66000398061014752806103755250806101b0528061029752806103e552508061011a52506106736000f3fe608060405234801561001057600080fd5b50600436106100885760003560e01c8063610be6541161005b578063610be654146100de5780637150d8ae146100e65780637284e416146100ee578063c040e6b81461010357610088565b80631f21cc911461008d57806325e3d522146100ab57806336da4468146100c15780633e86cb81146100c9575b600080fd5b610095610118565b6040516100a291906104e8565b60405180910390f35b6100b361013c565b6040516100a292919061062f565b610095610145565b6100d1610169565b6040516100a29190610515565b6100d1610232565b610095610295565b6100f66102b9565b6040516100a29190610534565b61010b610347565b6040516100a29190610520565b7f000000000000000000000000000000000000000000000000000000000000000081565b60015460025482565b7f000000000000000000000000000000000000000000000000000000000000000081565b60006001806003805460ff169081111561017f57fe5b146101a55760405162461bcd60e51b815260040161019c90610587565b60405180910390fd5b336001600160a01b037f000000000000000000000000000000000000000000000000000000000000000016146101da57600080fd5b6003805460ff191660021790556040517fa5839c8338e97347437fd2832deb3f6183e0d332a9be7c32f3fe5bd5e6a72ae69061021990339042906104fc565b60405180910390a1610229610350565b50600191505090565b60006002806003805460ff169081111561024857fe5b146102655760405162461bcd60e51b815260040161019c90610587565b6001544710156102875760405162461bcd60e51b815260040161019c906105e4565b61028f610350565b91505090565b7f000000000000000000000000000000000000000000000000000000000000000081565b6000805460408051602060026001851615610100026000190190941693909304601f8101849004840282018401909252818152929183018282801561033f5780601f106103145761010080835404028352916020019161033f565b820191906000526020600020905b81548152906001019060200180831161032257829003601f168201915b505050505081565b60035460ff1681565b60015460009047101561036557506000610470565b6001546040516001600160a01b037f0000000000000000000000000000000000000000000000000000000000000000169082156108fc029083906000818181858888f193505050501580156103be573d6000803e3d6000fd5b506001546000906103d0904790610473565b90508015610430576040516001600160a01b037f0000000000000000000000000000000000000000000000000000000000000000169082156108fc029083906000818181858888f1935050505015801561042e573d6000803e3d6000fd5b505b7f65703d9f725a4083877c27967ef4863c733b0a0da16f7041131c034ca66696a633426040516104619291906104fc565b60405180910390a16001925050505b90565b60006104b583836040518060400160405280601e81526020017f536166654d6174683a207375627472616374696f6e206f766572666c6f7700008152506104bc565b9392505050565b600081848411156104e05760405162461bcd60e51b815260040161019c9190610534565b505050900390565b6001600160a01b0391909116815260200190565b6001600160a01b03929092168252602082015260400190565b901515815260200190565b602081016004831061052e57fe5b91905290565b6000602080835283518082850152825b8181101561056057858101830151858201604001528201610544565b818111156105715783604083870101525b50601f01601f1916929092016040019392505050565b6020808252603c908201527f446973636f756e74696e67436f6e74726163743a2046756e6374696f6e20636160408201527f6e6e6f742062652063616c6c656420617420746869732074696d652e00000000606082015260800190565b6020808252602b908201527f446973636f756e74696e67436f6e74726163743a20436f6e747261637420626160408201526a3630b731b29032b93937b960a91b606082015260800190565b91825260208201526040019056fea2646970667358221220d90538d20c294265bffbb2f9e376282f8f99a32e97f022fa234323360d487acc64736f6c634300060c0033a2646970667358221220c7298096ae9a2bfa759e14d951e95c4d82d46a5959cb7ca376fccb6aaa961e1564736f6c634300060c0033",
  "immutableReferences": {},
  "source": "// SPDX-License-Identifier: MIT\n\n/**\n *                        oooo                             oooo                            oooo        \n *                        `888                             `888                            `888        \n *   .ooooo.  oooo  oooo   888   .ooooo.  oooo d8b          888 .oo.    .oooo.    .ooooo.   888  oooo  \n *  d88' `88b `888  `888   888  d88' `88b `888\"\"8P          888P\"Y88b  `P  )88b  d88' `\"Y8  888 .8P'   \n *  888ooo888  888   888   888  888ooo888  888     8888888  888   888   .oP\"888  888        888888.    \n *  888        888   888   888  888        888              888   888  d8(  888  888   .o8  888 `88b.  \n *  `Y8bod8P'  `V88V\"V8P' o888o `Y8bod8P' d888b            o888o o888o `Y888\"\"8o `Y8bod8P' o888o o888o                                                                                                \n *\n **/\n\npragma solidity ^0.6.12;\npragma experimental ABIEncoderV2;\n\nimport \"@openzeppelin/contracts/access/Ownable.sol\";\nimport \"@openzeppelin/contracts/math/SafeMath.sol\";\nimport \"./SupplyOrderTypes.sol\";\nimport \"./SupplyOrderContract.sol\";\n\n\ncontract SupplyOrderFactory is SupplyOrderTypes, Ownable {\n\n    using SafeMath for uint256;\n\n    enum Side {BUY, SELL}\n\n    struct P2POrder {\n        uint256 id;\n        address initiator;\n        Side ordeSide;\n        address target;\n        string description;\n        ContractRule rule;\n        SupplyOrderContract signedContract;\n    }\n\n\n    //\n    // Storage\n    //\n\n    SupplyOrderContract[] public contracts;\n    P2POrder[] public p2pOrders;\n\n    //\n    // Events\n    //\n\n    event CreatedP2POrder(uint256 _id, address indexed _from, Side indexed _side, address indexed _to, uint256 _timestamp);\n    event AcceptedP2POrder(uint256 _id, address indexed _from, Side indexed _side, address indexed _to, uint256 _timestamp);\n\n    //\n    // External methods\n    //\n\n    function createP2POrder(\n        Side _side,\n        address _to,\n        string memory _description,\n        ContractRule memory _rule\n    ) external returns(uint256) {\n        require(_to != msg.sender, \"DiscountingFactory: wrong _to parameter\");\n        // <-- TODO check _rule\n\n        P2POrder memory newOrder = P2POrder({\n            id: p2pOrders.length,\n            initiator: msg.sender,\n            ordeSide: _side,\n            target: _to,\n            description: _description,\n            rule: _rule,\n            signedContract: SupplyOrderContract(address(0))\n        });\n\n        p2pOrders.push(newOrder);\n        uint newOrderId = p2pOrders.length.sub(1);\n\n        emit CreatedP2POrder(newOrderId, msg.sender, _side, _to, block.timestamp);\n\n        return newOrderId;\n    }\n\n    function acceptP2POrder(uint256 _orderId) external returns(address) {\n        require(p2pOrders[_orderId].target == msg.sender, \"DiscountingFactory: wrong target\");\n        require(address(p2pOrders[_orderId].signedContract) == address(0), \"DiscountingFactory: p2p-order already accepted\");\n        \n        address payable buyer;\n        address payable supplier;\n        if (p2pOrders[_orderId].ordeSide == Side.BUY) {\n            buyer = payable(p2pOrders[_orderId].initiator);\n            supplier = payable(p2pOrders[_orderId].target);\n        } else {\n            buyer = payable(p2pOrders[_orderId].target);\n            supplier = payable(p2pOrders[_orderId].initiator);\n        }\n        SupplyOrderContract newContract = new SupplyOrderContract(\n            buyer,\n            supplier,\n            p2pOrders[_orderId].description,\n            p2pOrders[_orderId].rule\n        );\n\n        contracts.push(newContract);\n        p2pOrders[_orderId].signedContract = newContract;\n\n        emit AcceptedP2POrder(_orderId, msg.sender, p2pOrders[_orderId].ordeSide, p2pOrders[_orderId].target, block.timestamp);\n\n        return address(newContract);\n    }\n\n    function getOrderDetails(uint256 _orderId) external view returns(P2POrder memory) {\n        return(p2pOrders[_orderId]);\n    }\n\n    function getOrderDetailsList(uint256[] memory _orderIds) external view returns(P2POrder[] memory) {\n        P2POrder[] memory result = new P2POrder[](_orderIds.length);\n        for (uint256 i = 0; i < _orderIds.length; i++) {\n            result[i] = p2pOrders[_orderIds[i]];\n        }\n        return result;\n    }\n\n}\n",
  "sourcePath": "/home/oem/work/joys/staking-contract/contracts/supplyOrderPrototype/SupplyOrderFactory.sol",
  "compiler": {
    "name": "solc",
    "version": "0.6.12+commit.27d51765.Emscripten.clang"
  },
  "schemaVersion": "3.3.3",
  "updatedAt": "2021-03-26T08:17:21.006Z",
  "devdoc": {
    "kind": "dev",
    "methods": {
      "owner()": {
        "details": "Returns the address of the current owner."
      },
      "renounceOwnership()": {
        "details": "Leaves the contract without owner. It will not be possible to call `onlyOwner` functions anymore. Can only be called by the current owner. NOTE: Renouncing ownership will leave the contract without an owner, thereby removing any functionality that is only available to the owner."
      },
      "transferOwnership(address)": {
        "details": "Transfers ownership of the contract to a new account (`newOwner`). Can only be called by the current owner."
      }
    },
    "version": 1
  },
  "userdoc": {
    "kind": "user",
    "methods": {},
    "version": 1
  }
}