{
  "contractName": "SupplyOrderContract",
  "abi": [
    {
      "inputs": [
        {
          "internalType": "address payable",
          "name": "_buyer",
          "type": "address"
        },
        {
          "internalType": "address payable",
          "name": "_supplier",
          "type": "address"
        },
        {
          "internalType": "string",
          "name": "_description",
          "type": "string"
        },
        {
          "components": [
            {
              "internalType": "uint256",
              "name": "amount",
              "type": "uint256"
            },
            {
              "internalType": "uint256",
              "name": "discount",
              "type": "uint256"
            }
          ],
          "internalType": "struct SupplyOrderTypes.ContractRule",
          "name": "_rule",
          "type": "tuple"
        }
      ],
      "stateMutability": "nonpayable",
      "type": "constructor"
    },
    {
      "anonymous": false,
      "inputs": [
        {
          "indexed": false,
          "internalType": "address",
          "name": "_by",
          "type": "address"
        },
        {
          "indexed": false,
          "internalType": "uint256",
          "name": "_timestamp",
          "type": "uint256"
        }
      ],
      "name": "ClosedContract",
      "type": "event"
    },
    {
      "anonymous": false,
      "inputs": [
        {
          "indexed": false,
          "internalType": "address",
          "name": "_by",
          "type": "address"
        },
        {
          "indexed": false,
          "internalType": "uint256",
          "name": "_timestamp",
          "type": "uint256"
        }
      ],
      "name": "ConfirmedSupply",
      "type": "event"
    },
    {
      "inputs": [],
      "name": "buyer",
      "outputs": [
        {
          "internalType": "address payable",
          "name": "",
          "type": "address"
        }
      ],
      "stateMutability": "view",
      "type": "function"
    },
    {
      "inputs": [],
      "name": "deployedBy",
      "outputs": [
        {
          "internalType": "address",
          "name": "",
          "type": "address"
        }
      ],
      "stateMutability": "view",
      "type": "function"
    },
    {
      "inputs": [],
      "name": "description",
      "outputs": [
        {
          "internalType": "string",
          "name": "",
          "type": "string"
        }
      ],
      "stateMutability": "view",
      "type": "function"
    },
    {
      "inputs": [],
      "name": "rule",
      "outputs": [
        {
          "internalType": "uint256",
          "name": "amount",
          "type": "uint256"
        },
        {
          "internalType": "uint256",
          "name": "discount",
          "type": "uint256"
        }
      ],
      "stateMutability": "view",
      "type": "function"
    },
    {
      "inputs": [],
      "name": "stage",
      "outputs": [
        {
          "internalType": "enum SupplyOrderContract.Stage",
          "name": "",
          "type": "uint8"
        }
      ],
      "stateMutability": "view",
      "type": "function"
    },
    {
      "inputs": [],
      "name": "supplier",
      "outputs": [
        {
          "internalType": "address payable",
          "name": "",
          "type": "address"
        }
      ],
      "stateMutability": "view",
      "type": "function"
    },
    {
      "inputs": [],
      "name": "confirmSupply",
      "outputs": [
        {
          "internalType": "bool",
          "name": "",
          "type": "bool"
        }
      ],
      "stateMutability": "nonpayable",
      "type": "function"
    },
    {
      "inputs": [],
      "name": "closeContract",
      "outputs": [
        {
          "internalType": "bool",
          "name": "",
          "type": "bool"
        }
      ],
      "stateMutability": "nonpayable",
      "type": "function"
    }
  ],
  "bytecode": "0x60e060405234801561001057600080fd5b5060405161093938038061093983398101604081905261002f9161014f565b33606090811b6080526001600160601b031985821b811660a0529084901b1660c052815161006490600090602085019061008b565b50805160019081556020909101516002556003805460ff1916909117905550610282915050565b828054600181600116156101000203166002900490600052602060002090601f016020900481019282601f106100cc57805160ff19168380011785556100f9565b828001600101855582156100f9579182015b828111156100f95782518255916020019190600101906100de565b50610105929150610109565b5090565b5b80821115610105576000815560010161010a565b60006040828403121561012f578081fd5b6101396040610214565b9050815181526020820151602082015292915050565b60008060008060a08587031215610164578384fd5b845161016f8161026a565b60208601519094506101808161026a565b60408601519093506001600160401b038082111561019c578384fd5b818701915087601f8301126101af578384fd5b8151818111156101bd578485fd5b6101d0601f8201601f1916602001610214565b91508082528860208285010111156101e6578485fd5b6101f781602084016020860161023a565b5092506102099050866060870161011e565b905092959194509250565b6040518181016001600160401b038111828210171561023257600080fd5b604052919050565b60005b8381101561025557818101518382015260200161023d565b83811115610264576000848401525b50505050565b6001600160a01b038116811461027f57600080fd5b50565b60805160601c60a05160601c60c05160601c6106736102c66000398061014752806103755250806101b0528061029752806103e552508061011a52506106736000f3fe608060405234801561001057600080fd5b50600436106100885760003560e01c8063610be6541161005b578063610be654146100de5780637150d8ae146100e65780637284e416146100ee578063c040e6b81461010357610088565b80631f21cc911461008d57806325e3d522146100ab57806336da4468146100c15780633e86cb81146100c9575b600080fd5b610095610118565b6040516100a291906104e8565b60405180910390f35b6100b361013c565b6040516100a292919061062f565b610095610145565b6100d1610169565b6040516100a29190610515565b6100d1610232565b610095610295565b6100f66102b9565b6040516100a29190610534565b61010b610347565b6040516100a29190610520565b7f000000000000000000000000000000000000000000000000000000000000000081565b60015460025482565b7f000000000000000000000000000000000000000000000000000000000000000081565b60006001806003805460ff169081111561017f57fe5b146101a55760405162461bcd60e51b815260040161019c90610587565b60405180910390fd5b336001600160a01b037f000000000000000000000000000000000000000000000000000000000000000016146101da57600080fd5b6003805460ff191660021790556040517fa5839c8338e97347437fd2832deb3f6183e0d332a9be7c32f3fe5bd5e6a72ae69061021990339042906104fc565b60405180910390a1610229610350565b50600191505090565b60006002806003805460ff169081111561024857fe5b146102655760405162461bcd60e51b815260040161019c90610587565b6001544710156102875760405162461bcd60e51b815260040161019c906105e4565b61028f610350565b91505090565b7f000000000000000000000000000000000000000000000000000000000000000081565b6000805460408051602060026001851615610100026000190190941693909304601f8101849004840282018401909252818152929183018282801561033f5780601f106103145761010080835404028352916020019161033f565b820191906000526020600020905b81548152906001019060200180831161032257829003601f168201915b505050505081565b60035460ff1681565b60015460009047101561036557506000610470565b6001546040516001600160a01b037f0000000000000000000000000000000000000000000000000000000000000000169082156108fc029083906000818181858888f193505050501580156103be573d6000803e3d6000fd5b506001546000906103d0904790610473565b90508015610430576040516001600160a01b037f0000000000000000000000000000000000000000000000000000000000000000169082156108fc029083906000818181858888f1935050505015801561042e573d6000803e3d6000fd5b505b7f65703d9f725a4083877c27967ef4863c733b0a0da16f7041131c034ca66696a633426040516104619291906104fc565b60405180910390a16001925050505b90565b60006104b583836040518060400160405280601e81526020017f536166654d6174683a207375627472616374696f6e206f766572666c6f7700008152506104bc565b9392505050565b600081848411156104e05760405162461bcd60e51b815260040161019c9190610534565b505050900390565b6001600160a01b0391909116815260200190565b6001600160a01b03929092168252602082015260400190565b901515815260200190565b602081016004831061052e57fe5b91905290565b6000602080835283518082850152825b8181101561056057858101830151858201604001528201610544565b818111156105715783604083870101525b50601f01601f1916929092016040019392505050565b6020808252603c908201527f446973636f756e74696e67436f6e74726163743a2046756e6374696f6e20636160408201527f6e6e6f742062652063616c6c656420617420746869732074696d652e00000000606082015260800190565b6020808252602b908201527f446973636f756e74696e67436f6e74726163743a20436f6e747261637420626160408201526a3630b731b29032b93937b960a91b606082015260800190565b91825260208201526040019056fea2646970667358221220d90538d20c294265bffbb2f9e376282f8f99a32e97f022fa234323360d487acc64736f6c634300060c0033",
  "immutableReferences": {
    "1437": [
      {
        "length": 32,
        "start": 282
      }
    ],
    "1439": [
      {
        "length": 32,
        "start": 432
      },
      {
        "length": 32,
        "start": 663
      },
      {
        "length": 32,
        "start": 997
      }
    ],
    "1441": [
      {
        "length": 32,
        "start": 327
      },
      {
        "length": 32,
        "start": 885
      }
    ]
  },
  "source": "// SPDX-License-Identifier: MIT\n\n/**\n *                        oooo                             oooo                            oooo        \n *                        `888                             `888                            `888        \n *   .ooooo.  oooo  oooo   888   .ooooo.  oooo d8b          888 .oo.    .oooo.    .ooooo.   888  oooo  \n *  d88' `88b `888  `888   888  d88' `88b `888\"\"8P          888P\"Y88b  `P  )88b  d88' `\"Y8  888 .8P'   \n *  888ooo888  888   888   888  888ooo888  888     8888888  888   888   .oP\"888  888        888888.    \n *  888        888   888   888  888        888              888   888  d8(  888  888   .o8  888 `88b.  \n *  `Y8bod8P'  `V88V\"V8P' o888o `Y8bod8P' d888b            o888o o888o `Y888\"\"8o `Y8bod8P' o888o o888o                                                                                                \n *\n **/\n\npragma solidity ^0.6.12;\npragma experimental ABIEncoderV2;\n\nimport \"@openzeppelin/contracts/math/SafeMath.sol\";\nimport \"./SupplyOrderTypes.sol\";\n\n\ncontract SupplyOrderContract is SupplyOrderTypes {\n\n    using SafeMath for uint256;\n\n    enum Stage {\n        Initialization,\n        AwaitingSupply,\n        AwaitingPayment,\n        Closed\n    }\n\n    //\n    // Storage\n    //\n\n    address public immutable deployedBy;\n    address payable public immutable buyer;\n    address payable public immutable supplier;\n    string public description;\n    ContractRule public rule;\n\n    Stage public stage;\n\n    //\n    // Events\n    //\n\n    event ConfirmedSupply(address _by, uint256 _timestamp);\n    event ClosedContract(address _by, uint256 _timestamp);\n\n\n    //\n    // Modifiers\n    //\n\n    modifier atStage(Stage _stage) {\n        require(\n            stage == _stage,\n            \"DiscountingContract: Function cannot be called at this time.\"\n        );\n        _;\n    }\n\n    //\n    // External methods\n    //\n\n\n    constructor(address payable _buyer, address payable _supplier, string memory _description, ContractRule memory _rule) public {\n        deployedBy = msg.sender;\n        buyer = _buyer;\n        supplier = _supplier;\n        description = _description;\n        rule = _rule;\n\n        stage = Stage.AwaitingSupply;\n    }\n\n    function confirmSupply() external atStage(Stage.AwaitingSupply) returns(bool) {\n        require(msg.sender == buyer);\n        stage = Stage.AwaitingPayment;\n\n        emit ConfirmedSupply(msg.sender, block.timestamp);\n\n        _closeContract();\n\n        return true;\n    }\n\n    function closeContract() external atStage(Stage.AwaitingPayment) returns(bool) {\n        require(address(this).balance >= rule.amount, \"DiscountingContract: Contract balance error\");\n        return _closeContract();\n    }\n\n    //\n    // Internal methods\n    //\n\n    function _closeContract() private returns(bool) {\n        if (address(this).balance < rule.amount) {\n            return false;\n        }\n\n        uint256 supplierFunds = rule.amount;\n        supplier.transfer(supplierFunds);\n\n        uint256 buyerResidual = address(this).balance.sub(rule.amount);\n        if (buyerResidual > 0) {\n            buyer.transfer(buyerResidual);\n        }\n\n        emit ClosedContract(msg.sender, block.timestamp);\n\n        return true;\n    }\n}\n\n",
  "sourcePath": "/home/oem/work/joys/staking-contract/contracts/supplyOrderPrototype/SupplyOrderContract.sol",
  "compiler": {
    "name": "solc",
    "version": "0.6.12+commit.27d51765.Emscripten.clang"
  },
  "schemaVersion": "3.3.3",
  "updatedAt": "2021-03-26T08:17:21.000Z",
  "devdoc": {
    "kind": "dev",
    "methods": {},
    "version": 1
  },
  "userdoc": {
    "kind": "user",
    "methods": {},
    "version": 1
  }
}